{
	"data": {
		"bytecode": {
			"linkReferences": {},
			"object": "6080604052600760015f6101000a81548160ff021916908360ff1602179055506040518060400160405280600981526020017f4d79436f756e7465720000000000000000000000000000000000000000000000815250600290816100639190610847565b507f68656c6c6f20776f726c64202100000000000000000000000000000000000000600355735b38da6a701c568545dcfcb03fcb875f56beddc460045f6101000a81548173ffffffffffffffffffffffffffffffffffffffff021916908373ffffffffffffffffffffffffffffffffffffffff1602179055506040518060600160405280600160ff168152602001600260ff168152602001600360ff168152506005906003610113929190610451565b5060405180606001604052806040518060400160405280600581526020017f6170706c6500000000000000000000000000000000000000000000000000000081525081526020016040518060400160405280600681526020017f62616e616e61000000000000000000000000000000000000000000000000000081525081526020016040518060400160405280600981526020017f70696e656170706c65000000000000000000000000000000000000000000000081525081525060069060036101de9291906104a1565b5060405180606001604052806040518060600160405280600160ff168152602001600260ff168152602001600360ff1681525081526020016040518060600160405280600460ff168152602001600560ff168152602001600660ff1681525081526020016040518060600160405280600760ff168152602001600860ff168152602001600960ff16815250815250600790600361027c9291906104f8565b506040518060600160405280600181526020016040518060400160405280600581526020017f616172696e00000000000000000000000000000000000000000000000000000081525081526020016040518060400160405280600581526020017f424d53434500000000000000000000000000000000000000000000000000000081525081525060085f820151815f015560208201518160010190816103229190610847565b5060408201518160020190816103389190610847565b505050348015610346575f80fd5b505f80819055506040518060400160405280600681526020017f72616b7368690000000000000000000000000000000000000000000000000000815250600b5f600181526020019081526020015f2090816103a19190610847565b506040518060400160405280600681526020017f7661727368690000000000000000000000000000000000000000000000000000815250600b5f600281526020019081526020015f2090816103f69190610847565b506040518060400160405280600481526020017f6162686900000000000000000000000000000000000000000000000000000000815250600b5f600381526020019081526020015f20908161044b9190610847565b50610916565b828054828255905f5260205f20908101928215610490579160200282015b8281111561048f578251829060ff1690559160200191906001019061046f565b5b50905061049d9190610551565b5090565b828054828255905f5260205f209081019282156104e7579160200282015b828111156104e65782518290816104d69190610847565b50916020019190600101906104bf565b5b5090506104f4919061056c565b5090565b828054828255905f5260205f20908101928215610540579160200282015b8281111561053f5782518290600361052f929190610451565b5091602001919060010190610516565b5b50905061054d919061058f565b5090565b5b80821115610568575f815f905550600101610552565b5090565b5b8082111561058b575f818161058291906105b2565b5060010161056d565b5090565b5b808211156105ae575f81816105a591906105ef565b50600101610590565b5090565b5080546105be90610671565b5f825580601f106105cf57506105ec565b601f0160209004905f5260205f20908101906105eb9190610551565b5b50565b5080545f8255905f5260205f209081019061060a9190610551565b50565b5f81519050919050565b7f4e487b71000000000000000000000000000000000000000000000000000000005f52604160045260245ffd5b7f4e487b71000000000000000000000000000000000000000000000000000000005f52602260045260245ffd5b5f600282049050600182168061068857607f821691505b60208210810361069b5761069a610644565b5b50919050565b5f819050815f5260205f209050919050565b5f6020601f8301049050919050565b5f82821b905092915050565b5f600883026106fd7fffffffffffffffffffffffffffffffffffffffffffffffffffffffffffffffff826106c2565b61070786836106c2565b95508019841693508086168417925050509392505050565b5f819050919050565b5f819050919050565b5f61074b6107466107418461071f565b610728565b61071f565b9050919050565b5f819050919050565b61076483610731565b61077861077082610752565b8484546106ce565b825550505050565b5f90565b61078c610780565b61079781848461075b565b505050565b5b818110156107ba576107af5f82610784565b60018101905061079d565b5050565b601f8211156107ff576107d0816106a1565b6107d9846106b3565b810160208510156107e8578190505b6107fc6107f4856106b3565b83018261079c565b50505b505050565b5f82821c905092915050565b5f61081f5f1984600802610804565b1980831691505092915050565b5f6108378383610810565b9150826002028217905092915050565b6108508261060d565b67ffffffffffffffff81111561086957610868610617565b5b6108738254610671565b61087e8282856107be565b5f60209050601f8311600181146108af575f841561089d578287015190505b6108a7858261082c565b86555061090e565b601f1984166108bd866106a1565b5f5b828110156108e4578489015182556001820191506020850194506020810190506108bf565b8683101561090157848901516108fd601f891682610810565b8355505b6001600288020188555050505b505050505050565b610e36806109235f395ff3fe608060405234801561000f575f80fd5b50600436106100e8575f3560e01c8063933fb55b1161008a578063cfd8331911610064578063cfd8331914610224578063d39fa23314610254578063d54566af14610284578063e5071b8e146102a2576100e8565b8063933fb55b146101b8578063a87d942c146101d6578063c4172162146101f4576100e8565b8063506551ad116100c6578063506551ad146101425780636cc014de1461015e57806376a0625a1461017e578063916505aa1461019a576100e8565b806305304e45146100ec57806326b85ee1146101085780632be5599814610126575b5f80fd5b61010660048036038101906101019190610817565b6102ac565b005b610110610315565b60405161011d91906108f2565b60405180910390f35b610140600480360381019061013b919061090b565b61033a565b005b61015c60048036038101906101579190610817565b610363565b005b610166610407565b604051610175939291906109a5565b60405180910390f35b610198600480360381019061019391906109e8565b61052a565b005b6101a261055f565b6040516101af9190610a2f565b60405180910390f35b6101c061056b565b6040516101cd9190610a60565b60405180910390f35b6101de610571565b6040516101eb9190610a2f565b60405180910390f35b61020e6004803603810190610209919061090b565b610579565b60405161021b9190610a79565b60405180910390f35b61023e60048036038101906102399190610a99565b61061f565b60405161024b9190610a2f565b60405180910390f35b61026e6004803603810190610269919061090b565b610655565b60405161027b9190610a2f565b60405180910390f35b61028c610675565b6040516102999190610a2f565b60405180910390f35b6102aa610682565b005b604051806060016040528084815260200183815260200182815250600d5f8681526020019081526020015f205f820151815f015560208201518160010190816102f59190610cd1565b50604082015181600201908161030b9190610cd1565b5090505050505050565b60045f9054906101000a900473ffffffffffffffffffffffffffffffffffffffff1681565b600581908060018154018082558091505060019003905f5260205f20015f909190919091505550565b604051806060016040528084815260200183815260200182815250600c5f3373ffffffffffffffffffffffffffffffffffffffff1673ffffffffffffffffffffffffffffffffffffffff1681526020019081526020015f205f8681526020019081526020015f205f820151815f015560208201518160010190816103e79190610cd1565b5060408201518160020190816103fd9190610cd1565b5090505050505050565b6008805f01549080600101805461041d90610b04565b80601f016020809104026020016040519081016040528092919081815260200182805461044990610b04565b80156104945780601f1061046b57610100808354040283529160200191610494565b820191905f5260205f20905b81548152906001019060200180831161047757829003601f168201915b5050505050908060020180546104a990610b04565b80601f01602080910402602001604051908101604052809291908181526020018280546104d590610b04565b80156105205780601f106104f757610100808354040283529160200191610520565b820191905f5260205f20905b81548152906001019060200180831161050357829003601f168201915b5050505050905083565b600681908060018154018082558091505060019003905f5260205f20015f90919091909150908161055b9190610cd1565b5050565b5f600580549050905090565b60035481565b5f8054905090565b60068181548110610588575f80fd5b905f5260205f20015f9150905080546105a090610b04565b80601f01602080910402602001604051908101604052809291908181526020018280546105cc90610b04565b80156106175780601f106105ee57610100808354040283529160200191610617565b820191905f5260205f20905b8154815290600101906020018083116105fa57829003601f168201915b505050505081565b6007828154811061062e575f80fd5b905f5260205f20018181548110610643575f80fd5b905f5260205f20015f91509150505481565b60058181548110610664575f80fd5b905f5260205f20015f915090505481565b5f80600a90508091505090565b60015f546106909190610dcd565b5f81905550565b5f604051905090565b5f80fd5b5f80fd5b5f819050919050565b6106ba816106a8565b81146106c4575f80fd5b50565b5f813590506106d5816106b1565b92915050565b5f80fd5b5f80fd5b5f601f19601f8301169050919050565b7f4e487b71000000000000000000000000000000000000000000000000000000005f52604160045260245ffd5b610729826106e3565b810181811067ffffffffffffffff82111715610748576107476106f3565b5b80604052505050565b5f61075a610697565b90506107668282610720565b919050565b5f67ffffffffffffffff821115610785576107846106f3565b5b61078e826106e3565b9050602081019050919050565b828183375f83830152505050565b5f6107bb6107b68461076b565b610751565b9050828152602081018484840111156107d7576107d66106df565b5b6107e284828561079b565b509392505050565b5f82601f8301126107fe576107fd6106db565b5b813561080e8482602086016107a9565b91505092915050565b5f805f806080858703121561082f5761082e6106a0565b5b5f61083c878288016106c7565b945050602061084d878288016106c7565b935050604085013567ffffffffffffffff81111561086e5761086d6106a4565b5b61087a878288016107ea565b925050606085013567ffffffffffffffff81111561089b5761089a6106a4565b5b6108a7878288016107ea565b91505092959194509250565b5f73ffffffffffffffffffffffffffffffffffffffff82169050919050565b5f6108dc826108b3565b9050919050565b6108ec816108d2565b82525050565b5f6020820190506109055f8301846108e3565b92915050565b5f602082840312156109205761091f6106a0565b5b5f61092d848285016106c7565b91505092915050565b61093f816106a8565b82525050565b5f81519050919050565b5f82825260208201905092915050565b8281835e5f83830152505050565b5f61097782610945565b610981818561094f565b935061099181856020860161095f565b61099a816106e3565b840191505092915050565b5f6060820190506109b85f830186610936565b81810360208301526109ca818561096d565b905081810360408301526109de818461096d565b9050949350505050565b5f602082840312156109fd576109fc6106a0565b5b5f82013567ffffffffffffffff811115610a1a57610a196106a4565b5b610a26848285016107ea565b91505092915050565b5f602082019050610a425f830184610936565b92915050565b5f819050919050565b610a5a81610a48565b82525050565b5f602082019050610a735f830184610a51565b92915050565b5f6020820190508181035f830152610a91818461096d565b905092915050565b5f8060408385031215610aaf57610aae6106a0565b5b5f610abc858286016106c7565b9250506020610acd858286016106c7565b9150509250929050565b7f4e487b71000000000000000000000000000000000000000000000000000000005f52602260045260245ffd5b5f6002820490506001821680610b1b57607f821691505b602082108103610b2e57610b2d610ad7565b5b50919050565b5f819050815f5260205f209050919050565b5f6020601f8301049050919050565b5f82821b905092915050565b5f60088302610b907fffffffffffffffffffffffffffffffffffffffffffffffffffffffffffffffff82610b55565b610b9a8683610b55565b95508019841693508086168417925050509392505050565b5f819050919050565b5f610bd5610bd0610bcb846106a8565b610bb2565b6106a8565b9050919050565b5f819050919050565b610bee83610bbb565b610c02610bfa82610bdc565b848454610b61565b825550505050565b5f90565b610c16610c0a565b610c21818484610be5565b505050565b5b81811015610c4457610c395f82610c0e565b600181019050610c27565b5050565b601f821115610c8957610c5a81610b34565b610c6384610b46565b81016020851015610c72578190505b610c86610c7e85610b46565b830182610c26565b50505b505050565b5f82821c905092915050565b5f610ca95f1984600802610c8e565b1980831691505092915050565b5f610cc18383610c9a565b9150826002028217905092915050565b610cda82610945565b67ffffffffffffffff811115610cf357610cf26106f3565b5b610cfd8254610b04565b610d08828285610c48565b5f60209050601f831160018114610d39575f8415610d27578287015190505b610d318582610cb6565b865550610d98565b601f198416610d4786610b34565b5f5b82811015610d6e57848901518255600182019150602085019450602081019050610d49565b86831015610d8b5784890151610d87601f891682610c9a565b8355505b6001600288020188555050505b505050505050565b7f4e487b71000000000000000000000000000000000000000000000000000000005f52601160045260245ffd5b5f610dd7826106a8565b9150610de2836106a8565b9250828201905080821115610dfa57610df9610da0565b5b9291505056fea26469706673582212207d3361fae206b6c39ddd9e61e1fde46cdf8650d6e926e771dadb4f93d9714ba364736f6c634300081a0033",
			"opcodes": "PUSH1 0x80 PUSH1 0x40 MSTORE PUSH1 0x7 PUSH1 0x1 PUSH0 PUSH2 0x100 EXP DUP2 SLOAD DUP2 PUSH1 0xFF MUL NOT AND SWAP1 DUP4 PUSH1 0xFF AND MUL OR SWAP1 SSTORE POP PUSH1 0x40 MLOAD DUP1 PUSH1 0x40 ADD PUSH1 0x40 MSTORE DUP1 PUSH1 0x9 DUP2 MSTORE PUSH1 0x20 ADD PUSH32 0x4D79436F756E7465720000000000000000000000000000000000000000000000 DUP2 MSTORE POP PUSH1 0x2 SWAP1 DUP2 PUSH2 0x63 SWAP2 SWAP1 PUSH2 0x847 JUMP JUMPDEST POP PUSH32 0x68656C6C6F20776F726C64202100000000000000000000000000000000000000 PUSH1 0x3 SSTORE PUSH20 0x5B38DA6A701C568545DCFCB03FCB875F56BEDDC4 PUSH1 0x4 PUSH0 PUSH2 0x100 EXP DUP2 SLOAD DUP2 PUSH20 0xFFFFFFFFFFFFFFFFFFFFFFFFFFFFFFFFFFFFFFFF MUL NOT AND SWAP1 DUP4 PUSH20 0xFFFFFFFFFFFFFFFFFFFFFFFFFFFFFFFFFFFFFFFF AND MUL OR SWAP1 SSTORE POP PUSH1 0x40 MLOAD DUP1 PUSH1 0x60 ADD PUSH1 0x40 MSTORE DUP1 PUSH1 0x1 PUSH1 0xFF AND DUP2 MSTORE PUSH1 0x20 ADD PUSH1 0x2 PUSH1 0xFF AND DUP2 MSTORE PUSH1 0x20 ADD PUSH1 0x3 PUSH1 0xFF AND DUP2 MSTORE POP PUSH1 0x5 SWAP1 PUSH1 0x3 PUSH2 0x113 SWAP3 SWAP2 SWAP1 PUSH2 0x451 JUMP JUMPDEST POP PUSH1 0x40 MLOAD DUP1 PUSH1 0x60 ADD PUSH1 0x40 MSTORE DUP1 PUSH1 0x40 MLOAD DUP1 PUSH1 0x40 ADD PUSH1 0x40 MSTORE DUP1 PUSH1 0x5 DUP2 MSTORE PUSH1 0x20 ADD PUSH32 0x6170706C65000000000000000000000000000000000000000000000000000000 DUP2 MSTORE POP DUP2 MSTORE PUSH1 0x20 ADD PUSH1 0x40 MLOAD DUP1 PUSH1 0x40 ADD PUSH1 0x40 MSTORE DUP1 PUSH1 0x6 DUP2 MSTORE PUSH1 0x20 ADD PUSH32 0x62616E616E610000000000000000000000000000000000000000000000000000 DUP2 MSTORE POP DUP2 MSTORE PUSH1 0x20 ADD PUSH1 0x40 MLOAD DUP1 PUSH1 0x40 ADD PUSH1 0x40 MSTORE DUP1 PUSH1 0x9 DUP2 MSTORE PUSH1 0x20 ADD PUSH32 0x70696E656170706C650000000000000000000000000000000000000000000000 DUP2 MSTORE POP DUP2 MSTORE POP PUSH1 0x6 SWAP1 PUSH1 0x3 PUSH2 0x1DE SWAP3 SWAP2 SWAP1 PUSH2 0x4A1 JUMP JUMPDEST POP PUSH1 0x40 MLOAD DUP1 PUSH1 0x60 ADD PUSH1 0x40 MSTORE DUP1 PUSH1 0x40 MLOAD DUP1 PUSH1 0x60 ADD PUSH1 0x40 MSTORE DUP1 PUSH1 0x1 PUSH1 0xFF AND DUP2 MSTORE PUSH1 0x20 ADD PUSH1 0x2 PUSH1 0xFF AND DUP2 MSTORE PUSH1 0x20 ADD PUSH1 0x3 PUSH1 0xFF AND DUP2 MSTORE POP DUP2 MSTORE PUSH1 0x20 ADD PUSH1 0x40 MLOAD DUP1 PUSH1 0x60 ADD PUSH1 0x40 MSTORE DUP1 PUSH1 0x4 PUSH1 0xFF AND DUP2 MSTORE PUSH1 0x20 ADD PUSH1 0x5 PUSH1 0xFF AND DUP2 MSTORE PUSH1 0x20 ADD PUSH1 0x6 PUSH1 0xFF AND DUP2 MSTORE POP DUP2 MSTORE PUSH1 0x20 ADD PUSH1 0x40 MLOAD DUP1 PUSH1 0x60 ADD PUSH1 0x40 MSTORE DUP1 PUSH1 0x7 PUSH1 0xFF AND DUP2 MSTORE PUSH1 0x20 ADD PUSH1 0x8 PUSH1 0xFF AND DUP2 MSTORE PUSH1 0x20 ADD PUSH1 0x9 PUSH1 0xFF AND DUP2 MSTORE POP DUP2 MSTORE POP PUSH1 0x7 SWAP1 PUSH1 0x3 PUSH2 0x27C SWAP3 SWAP2 SWAP1 PUSH2 0x4F8 JUMP JUMPDEST POP PUSH1 0x40 MLOAD DUP1 PUSH1 0x60 ADD PUSH1 0x40 MSTORE DUP1 PUSH1 0x1 DUP2 MSTORE PUSH1 0x20 ADD PUSH1 0x40 MLOAD DUP1 PUSH1 0x40 ADD PUSH1 0x40 MSTORE DUP1 PUSH1 0x5 DUP2 MSTORE PUSH1 0x20 ADD PUSH32 0x616172696E000000000000000000000000000000000000000000000000000000 DUP2 MSTORE POP DUP2 MSTORE PUSH1 0x20 ADD PUSH1 0x40 MLOAD DUP1 PUSH1 0x40 ADD PUSH1 0x40 MSTORE DUP1 PUSH1 0x5 DUP2 MSTORE PUSH1 0x20 ADD PUSH32 0x424D534345000000000000000000000000000000000000000000000000000000 DUP2 MSTORE POP DUP2 MSTORE POP PUSH1 0x8 PUSH0 DUP3 ADD MLOAD DUP2 PUSH0 ADD SSTORE PUSH1 0x20 DUP3 ADD MLOAD DUP2 PUSH1 0x1 ADD SWAP1 DUP2 PUSH2 0x322 SWAP2 SWAP1 PUSH2 0x847 JUMP JUMPDEST POP PUSH1 0x40 DUP3 ADD MLOAD DUP2 PUSH1 0x2 ADD SWAP1 DUP2 PUSH2 0x338 SWAP2 SWAP1 PUSH2 0x847 JUMP JUMPDEST POP POP POP CALLVALUE DUP1 ISZERO PUSH2 0x346 JUMPI PUSH0 DUP1 REVERT JUMPDEST POP PUSH0 DUP1 DUP2 SWAP1 SSTORE POP PUSH1 0x40 MLOAD DUP1 PUSH1 0x40 ADD PUSH1 0x40 MSTORE DUP1 PUSH1 0x6 DUP2 MSTORE PUSH1 0x20 ADD PUSH32 0x72616B7368690000000000000000000000000000000000000000000000000000 DUP2 MSTORE POP PUSH1 0xB PUSH0 PUSH1 0x1 DUP2 MSTORE PUSH1 0x20 ADD SWAP1 DUP2 MSTORE PUSH1 0x20 ADD PUSH0 KECCAK256 SWAP1 DUP2 PUSH2 0x3A1 SWAP2 SWAP1 PUSH2 0x847 JUMP JUMPDEST POP PUSH1 0x40 MLOAD DUP1 PUSH1 0x40 ADD PUSH1 0x40 MSTORE DUP1 PUSH1 0x6 DUP2 MSTORE PUSH1 0x20 ADD PUSH32 0x7661727368690000000000000000000000000000000000000000000000000000 DUP2 MSTORE POP PUSH1 0xB PUSH0 PUSH1 0x2 DUP2 MSTORE PUSH1 0x20 ADD SWAP1 DUP2 MSTORE PUSH1 0x20 ADD PUSH0 KECCAK256 SWAP1 DUP2 PUSH2 0x3F6 SWAP2 SWAP1 PUSH2 0x847 JUMP JUMPDEST POP PUSH1 0x40 MLOAD DUP1 PUSH1 0x40 ADD PUSH1 0x40 MSTORE DUP1 PUSH1 0x4 DUP2 MSTORE PUSH1 0x20 ADD PUSH32 0x6162686900000000000000000000000000000000000000000000000000000000 DUP2 MSTORE POP PUSH1 0xB PUSH0 PUSH1 0x3 DUP2 MSTORE PUSH1 0x20 ADD SWAP1 DUP2 MSTORE PUSH1 0x20 ADD PUSH0 KECCAK256 SWAP1 DUP2 PUSH2 0x44B SWAP2 SWAP1 PUSH2 0x847 JUMP JUMPDEST POP PUSH2 0x916 JUMP JUMPDEST DUP3 DUP1 SLOAD DUP3 DUP3 SSTORE SWAP1 PUSH0 MSTORE PUSH1 0x20 PUSH0 KECCAK256 SWAP1 DUP2 ADD SWAP3 DUP3 ISZERO PUSH2 0x490 JUMPI SWAP2 PUSH1 0x20 MUL DUP3 ADD JUMPDEST DUP3 DUP2 GT ISZERO PUSH2 0x48F JUMPI DUP3 MLOAD DUP3 SWAP1 PUSH1 0xFF AND SWAP1 SSTORE SWAP2 PUSH1 0x20 ADD SWAP2 SWAP1 PUSH1 0x1 ADD SWAP1 PUSH2 0x46F JUMP JUMPDEST JUMPDEST POP SWAP1 POP PUSH2 0x49D SWAP2 SWAP1 PUSH2 0x551 JUMP JUMPDEST POP SWAP1 JUMP JUMPDEST DUP3 DUP1 SLOAD DUP3 DUP3 SSTORE SWAP1 PUSH0 MSTORE PUSH1 0x20 PUSH0 KECCAK256 SWAP1 DUP2 ADD SWAP3 DUP3 ISZERO PUSH2 0x4E7 JUMPI SWAP2 PUSH1 0x20 MUL DUP3 ADD JUMPDEST DUP3 DUP2 GT ISZERO PUSH2 0x4E6 JUMPI DUP3 MLOAD DUP3 SWAP1 DUP2 PUSH2 0x4D6 SWAP2 SWAP1 PUSH2 0x847 JUMP JUMPDEST POP SWAP2 PUSH1 0x20 ADD SWAP2 SWAP1 PUSH1 0x1 ADD SWAP1 PUSH2 0x4BF JUMP JUMPDEST JUMPDEST POP SWAP1 POP PUSH2 0x4F4 SWAP2 SWAP1 PUSH2 0x56C JUMP JUMPDEST POP SWAP1 JUMP JUMPDEST DUP3 DUP1 SLOAD DUP3 DUP3 SSTORE SWAP1 PUSH0 MSTORE PUSH1 0x20 PUSH0 KECCAK256 SWAP1 DUP2 ADD SWAP3 DUP3 ISZERO PUSH2 0x540 JUMPI SWAP2 PUSH1 0x20 MUL DUP3 ADD JUMPDEST DUP3 DUP2 GT ISZERO PUSH2 0x53F JUMPI DUP3 MLOAD DUP3 SWAP1 PUSH1 0x3 PUSH2 0x52F SWAP3 SWAP2 SWAP1 PUSH2 0x451 JUMP JUMPDEST POP SWAP2 PUSH1 0x20 ADD SWAP2 SWAP1 PUSH1 0x1 ADD SWAP1 PUSH2 0x516 JUMP JUMPDEST JUMPDEST POP SWAP1 POP PUSH2 0x54D SWAP2 SWAP1 PUSH2 0x58F JUMP JUMPDEST POP SWAP1 JUMP JUMPDEST JUMPDEST DUP1 DUP3 GT ISZERO PUSH2 0x568 JUMPI PUSH0 DUP2 PUSH0 SWAP1 SSTORE POP PUSH1 0x1 ADD PUSH2 0x552 JUMP JUMPDEST POP SWAP1 JUMP JUMPDEST JUMPDEST DUP1 DUP3 GT ISZERO PUSH2 0x58B JUMPI PUSH0 DUP2 DUP2 PUSH2 0x582 SWAP2 SWAP1 PUSH2 0x5B2 JUMP JUMPDEST POP PUSH1 0x1 ADD PUSH2 0x56D JUMP JUMPDEST POP SWAP1 JUMP JUMPDEST JUMPDEST DUP1 DUP3 GT ISZERO PUSH2 0x5AE JUMPI PUSH0 DUP2 DUP2 PUSH2 0x5A5 SWAP2 SWAP1 PUSH2 0x5EF JUMP JUMPDEST POP PUSH1 0x1 ADD PUSH2 0x590 JUMP JUMPDEST POP SWAP1 JUMP JUMPDEST POP DUP1 SLOAD PUSH2 0x5BE SWAP1 PUSH2 0x671 JUMP JUMPDEST PUSH0 DUP3 SSTORE DUP1 PUSH1 0x1F LT PUSH2 0x5CF JUMPI POP PUSH2 0x5EC JUMP JUMPDEST PUSH1 0x1F ADD PUSH1 0x20 SWAP1 DIV SWAP1 PUSH0 MSTORE PUSH1 0x20 PUSH0 KECCAK256 SWAP1 DUP2 ADD SWAP1 PUSH2 0x5EB SWAP2 SWAP1 PUSH2 0x551 JUMP JUMPDEST JUMPDEST POP JUMP JUMPDEST POP DUP1 SLOAD PUSH0 DUP3 SSTORE SWAP1 PUSH0 MSTORE PUSH1 0x20 PUSH0 KECCAK256 SWAP1 DUP2 ADD SWAP1 PUSH2 0x60A SWAP2 SWAP1 PUSH2 0x551 JUMP JUMPDEST POP JUMP JUMPDEST PUSH0 DUP2 MLOAD SWAP1 POP SWAP2 SWAP1 POP JUMP JUMPDEST PUSH32 0x4E487B7100000000000000000000000000000000000000000000000000000000 PUSH0 MSTORE PUSH1 0x41 PUSH1 0x4 MSTORE PUSH1 0x24 PUSH0 REVERT JUMPDEST PUSH32 0x4E487B7100000000000000000000000000000000000000000000000000000000 PUSH0 MSTORE PUSH1 0x22 PUSH1 0x4 MSTORE PUSH1 0x24 PUSH0 REVERT JUMPDEST PUSH0 PUSH1 0x2 DUP3 DIV SWAP1 POP PUSH1 0x1 DUP3 AND DUP1 PUSH2 0x688 JUMPI PUSH1 0x7F DUP3 AND SWAP2 POP JUMPDEST PUSH1 0x20 DUP3 LT DUP2 SUB PUSH2 0x69B JUMPI PUSH2 0x69A PUSH2 0x644 JUMP JUMPDEST JUMPDEST POP SWAP2 SWAP1 POP JUMP JUMPDEST PUSH0 DUP2 SWAP1 POP DUP2 PUSH0 MSTORE PUSH1 0x20 PUSH0 KECCAK256 SWAP1 POP SWAP2 SWAP1 POP JUMP JUMPDEST PUSH0 PUSH1 0x20 PUSH1 0x1F DUP4 ADD DIV SWAP1 POP SWAP2 SWAP1 POP JUMP JUMPDEST PUSH0 DUP3 DUP3 SHL SWAP1 POP SWAP3 SWAP2 POP POP JUMP JUMPDEST PUSH0 PUSH1 0x8 DUP4 MUL PUSH2 0x6FD PUSH32 0xFFFFFFFFFFFFFFFFFFFFFFFFFFFFFFFFFFFFFFFFFFFFFFFFFFFFFFFFFFFFFFFF DUP3 PUSH2 0x6C2 JUMP JUMPDEST PUSH2 0x707 DUP7 DUP4 PUSH2 0x6C2 JUMP JUMPDEST SWAP6 POP DUP1 NOT DUP5 AND SWAP4 POP DUP1 DUP7 AND DUP5 OR SWAP3 POP POP POP SWAP4 SWAP3 POP POP POP JUMP JUMPDEST PUSH0 DUP2 SWAP1 POP SWAP2 SWAP1 POP JUMP JUMPDEST PUSH0 DUP2 SWAP1 POP SWAP2 SWAP1 POP JUMP JUMPDEST PUSH0 PUSH2 0x74B PUSH2 0x746 PUSH2 0x741 DUP5 PUSH2 0x71F JUMP JUMPDEST PUSH2 0x728 JUMP JUMPDEST PUSH2 0x71F JUMP JUMPDEST SWAP1 POP SWAP2 SWAP1 POP JUMP JUMPDEST PUSH0 DUP2 SWAP1 POP SWAP2 SWAP1 POP JUMP JUMPDEST PUSH2 0x764 DUP4 PUSH2 0x731 JUMP JUMPDEST PUSH2 0x778 PUSH2 0x770 DUP3 PUSH2 0x752 JUMP JUMPDEST DUP5 DUP5 SLOAD PUSH2 0x6CE JUMP JUMPDEST DUP3 SSTORE POP POP POP POP JUMP JUMPDEST PUSH0 SWAP1 JUMP JUMPDEST PUSH2 0x78C PUSH2 0x780 JUMP JUMPDEST PUSH2 0x797 DUP2 DUP5 DUP5 PUSH2 0x75B JUMP JUMPDEST POP POP POP JUMP JUMPDEST JUMPDEST DUP2 DUP2 LT ISZERO PUSH2 0x7BA JUMPI PUSH2 0x7AF PUSH0 DUP3 PUSH2 0x784 JUMP JUMPDEST PUSH1 0x1 DUP2 ADD SWAP1 POP PUSH2 0x79D JUMP JUMPDEST POP POP JUMP JUMPDEST PUSH1 0x1F DUP3 GT ISZERO PUSH2 0x7FF JUMPI PUSH2 0x7D0 DUP2 PUSH2 0x6A1 JUMP JUMPDEST PUSH2 0x7D9 DUP5 PUSH2 0x6B3 JUMP JUMPDEST DUP2 ADD PUSH1 0x20 DUP6 LT ISZERO PUSH2 0x7E8 JUMPI DUP2 SWAP1 POP JUMPDEST PUSH2 0x7FC PUSH2 0x7F4 DUP6 PUSH2 0x6B3 JUMP JUMPDEST DUP4 ADD DUP3 PUSH2 0x79C JUMP JUMPDEST POP POP JUMPDEST POP POP POP JUMP JUMPDEST PUSH0 DUP3 DUP3 SHR SWAP1 POP SWAP3 SWAP2 POP POP JUMP JUMPDEST PUSH0 PUSH2 0x81F PUSH0 NOT DUP5 PUSH1 0x8 MUL PUSH2 0x804 JUMP JUMPDEST NOT DUP1 DUP4 AND SWAP2 POP POP SWAP3 SWAP2 POP POP JUMP JUMPDEST PUSH0 PUSH2 0x837 DUP4 DUP4 PUSH2 0x810 JUMP JUMPDEST SWAP2 POP DUP3 PUSH1 0x2 MUL DUP3 OR SWAP1 POP SWAP3 SWAP2 POP POP JUMP JUMPDEST PUSH2 0x850 DUP3 PUSH2 0x60D JUMP JUMPDEST PUSH8 0xFFFFFFFFFFFFFFFF DUP2 GT ISZERO PUSH2 0x869 JUMPI PUSH2 0x868 PUSH2 0x617 JUMP JUMPDEST JUMPDEST PUSH2 0x873 DUP3 SLOAD PUSH2 0x671 JUMP JUMPDEST PUSH2 0x87E DUP3 DUP3 DUP6 PUSH2 0x7BE JUMP JUMPDEST PUSH0 PUSH1 0x20 SWAP1 POP PUSH1 0x1F DUP4 GT PUSH1 0x1 DUP2 EQ PUSH2 0x8AF JUMPI PUSH0 DUP5 ISZERO PUSH2 0x89D JUMPI DUP3 DUP8 ADD MLOAD SWAP1 POP JUMPDEST PUSH2 0x8A7 DUP6 DUP3 PUSH2 0x82C JUMP JUMPDEST DUP7 SSTORE POP PUSH2 0x90E JUMP JUMPDEST PUSH1 0x1F NOT DUP5 AND PUSH2 0x8BD DUP7 PUSH2 0x6A1 JUMP JUMPDEST PUSH0 JUMPDEST DUP3 DUP2 LT ISZERO PUSH2 0x8E4 JUMPI DUP5 DUP10 ADD MLOAD DUP3 SSTORE PUSH1 0x1 DUP3 ADD SWAP2 POP PUSH1 0x20 DUP6 ADD SWAP5 POP PUSH1 0x20 DUP2 ADD SWAP1 POP PUSH2 0x8BF JUMP JUMPDEST DUP7 DUP4 LT ISZERO PUSH2 0x901 JUMPI DUP5 DUP10 ADD MLOAD PUSH2 0x8FD PUSH1 0x1F DUP10 AND DUP3 PUSH2 0x810 JUMP JUMPDEST DUP4 SSTORE POP JUMPDEST PUSH1 0x1 PUSH1 0x2 DUP9 MUL ADD DUP9 SSTORE POP POP POP JUMPDEST POP POP POP POP POP POP JUMP JUMPDEST PUSH2 0xE36 DUP1 PUSH2 0x923 PUSH0 CODECOPY PUSH0 RETURN INVALID PUSH1 0x80 PUSH1 0x40 MSTORE CALLVALUE DUP1 ISZERO PUSH2 0xF JUMPI PUSH0 DUP1 REVERT JUMPDEST POP PUSH1 0x4 CALLDATASIZE LT PUSH2 0xE8 JUMPI PUSH0 CALLDATALOAD PUSH1 0xE0 SHR DUP1 PUSH4 0x933FB55B GT PUSH2 0x8A JUMPI DUP1 PUSH4 0xCFD83319 GT PUSH2 0x64 JUMPI DUP1 PUSH4 0xCFD83319 EQ PUSH2 0x224 JUMPI DUP1 PUSH4 0xD39FA233 EQ PUSH2 0x254 JUMPI DUP1 PUSH4 0xD54566AF EQ PUSH2 0x284 JUMPI DUP1 PUSH4 0xE5071B8E EQ PUSH2 0x2A2 JUMPI PUSH2 0xE8 JUMP JUMPDEST DUP1 PUSH4 0x933FB55B EQ PUSH2 0x1B8 JUMPI DUP1 PUSH4 0xA87D942C EQ PUSH2 0x1D6 JUMPI DUP1 PUSH4 0xC4172162 EQ PUSH2 0x1F4 JUMPI PUSH2 0xE8 JUMP JUMPDEST DUP1 PUSH4 0x506551AD GT PUSH2 0xC6 JUMPI DUP1 PUSH4 0x506551AD EQ PUSH2 0x142 JUMPI DUP1 PUSH4 0x6CC014DE EQ PUSH2 0x15E JUMPI DUP1 PUSH4 0x76A0625A EQ PUSH2 0x17E JUMPI DUP1 PUSH4 0x916505AA EQ PUSH2 0x19A JUMPI PUSH2 0xE8 JUMP JUMPDEST DUP1 PUSH4 0x5304E45 EQ PUSH2 0xEC JUMPI DUP1 PUSH4 0x26B85EE1 EQ PUSH2 0x108 JUMPI DUP1 PUSH4 0x2BE55998 EQ PUSH2 0x126 JUMPI JUMPDEST PUSH0 DUP1 REVERT JUMPDEST PUSH2 0x106 PUSH1 0x4 DUP1 CALLDATASIZE SUB DUP2 ADD SWAP1 PUSH2 0x101 SWAP2 SWAP1 PUSH2 0x817 JUMP JUMPDEST PUSH2 0x2AC JUMP JUMPDEST STOP JUMPDEST PUSH2 0x110 PUSH2 0x315 JUMP JUMPDEST PUSH1 0x40 MLOAD PUSH2 0x11D SWAP2 SWAP1 PUSH2 0x8F2 JUMP JUMPDEST PUSH1 0x40 MLOAD DUP1 SWAP2 SUB SWAP1 RETURN JUMPDEST PUSH2 0x140 PUSH1 0x4 DUP1 CALLDATASIZE SUB DUP2 ADD SWAP1 PUSH2 0x13B SWAP2 SWAP1 PUSH2 0x90B JUMP JUMPDEST PUSH2 0x33A JUMP JUMPDEST STOP JUMPDEST PUSH2 0x15C PUSH1 0x4 DUP1 CALLDATASIZE SUB DUP2 ADD SWAP1 PUSH2 0x157 SWAP2 SWAP1 PUSH2 0x817 JUMP JUMPDEST PUSH2 0x363 JUMP JUMPDEST STOP JUMPDEST PUSH2 0x166 PUSH2 0x407 JUMP JUMPDEST PUSH1 0x40 MLOAD PUSH2 0x175 SWAP4 SWAP3 SWAP2 SWAP1 PUSH2 0x9A5 JUMP JUMPDEST PUSH1 0x40 MLOAD DUP1 SWAP2 SUB SWAP1 RETURN JUMPDEST PUSH2 0x198 PUSH1 0x4 DUP1 CALLDATASIZE SUB DUP2 ADD SWAP1 PUSH2 0x193 SWAP2 SWAP1 PUSH2 0x9E8 JUMP JUMPDEST PUSH2 0x52A JUMP JUMPDEST STOP JUMPDEST PUSH2 0x1A2 PUSH2 0x55F JUMP JUMPDEST PUSH1 0x40 MLOAD PUSH2 0x1AF SWAP2 SWAP1 PUSH2 0xA2F JUMP JUMPDEST PUSH1 0x40 MLOAD DUP1 SWAP2 SUB SWAP1 RETURN JUMPDEST PUSH2 0x1C0 PUSH2 0x56B JUMP JUMPDEST PUSH1 0x40 MLOAD PUSH2 0x1CD SWAP2 SWAP1 PUSH2 0xA60 JUMP JUMPDEST PUSH1 0x40 MLOAD DUP1 SWAP2 SUB SWAP1 RETURN JUMPDEST PUSH2 0x1DE PUSH2 0x571 JUMP JUMPDEST PUSH1 0x40 MLOAD PUSH2 0x1EB SWAP2 SWAP1 PUSH2 0xA2F JUMP JUMPDEST PUSH1 0x40 MLOAD DUP1 SWAP2 SUB SWAP1 RETURN JUMPDEST PUSH2 0x20E PUSH1 0x4 DUP1 CALLDATASIZE SUB DUP2 ADD SWAP1 PUSH2 0x209 SWAP2 SWAP1 PUSH2 0x90B JUMP JUMPDEST PUSH2 0x579 JUMP JUMPDEST PUSH1 0x40 MLOAD PUSH2 0x21B SWAP2 SWAP1 PUSH2 0xA79 JUMP JUMPDEST PUSH1 0x40 MLOAD DUP1 SWAP2 SUB SWAP1 RETURN JUMPDEST PUSH2 0x23E PUSH1 0x4 DUP1 CALLDATASIZE SUB DUP2 ADD SWAP1 PUSH2 0x239 SWAP2 SWAP1 PUSH2 0xA99 JUMP JUMPDEST PUSH2 0x61F JUMP JUMPDEST PUSH1 0x40 MLOAD PUSH2 0x24B SWAP2 SWAP1 PUSH2 0xA2F JUMP JUMPDEST PUSH1 0x40 MLOAD DUP1 SWAP2 SUB SWAP1 RETURN JUMPDEST PUSH2 0x26E PUSH1 0x4 DUP1 CALLDATASIZE SUB DUP2 ADD SWAP1 PUSH2 0x269 SWAP2 SWAP1 PUSH2 0x90B JUMP JUMPDEST PUSH2 0x655 JUMP JUMPDEST PUSH1 0x40 MLOAD PUSH2 0x27B SWAP2 SWAP1 PUSH2 0xA2F JUMP JUMPDEST PUSH1 0x40 MLOAD DUP1 SWAP2 SUB SWAP1 RETURN JUMPDEST PUSH2 0x28C PUSH2 0x675 JUMP JUMPDEST PUSH1 0x40 MLOAD PUSH2 0x299 SWAP2 SWAP1 PUSH2 0xA2F JUMP JUMPDEST PUSH1 0x40 MLOAD DUP1 SWAP2 SUB SWAP1 RETURN JUMPDEST PUSH2 0x2AA PUSH2 0x682 JUMP JUMPDEST STOP JUMPDEST PUSH1 0x40 MLOAD DUP1 PUSH1 0x60 ADD PUSH1 0x40 MSTORE DUP1 DUP5 DUP2 MSTORE PUSH1 0x20 ADD DUP4 DUP2 MSTORE PUSH1 0x20 ADD DUP3 DUP2 MSTORE POP PUSH1 0xD PUSH0 DUP7 DUP2 MSTORE PUSH1 0x20 ADD SWAP1 DUP2 MSTORE PUSH1 0x20 ADD PUSH0 KECCAK256 PUSH0 DUP3 ADD MLOAD DUP2 PUSH0 ADD SSTORE PUSH1 0x20 DUP3 ADD MLOAD DUP2 PUSH1 0x1 ADD SWAP1 DUP2 PUSH2 0x2F5 SWAP2 SWAP1 PUSH2 0xCD1 JUMP JUMPDEST POP PUSH1 0x40 DUP3 ADD MLOAD DUP2 PUSH1 0x2 ADD SWAP1 DUP2 PUSH2 0x30B SWAP2 SWAP1 PUSH2 0xCD1 JUMP JUMPDEST POP SWAP1 POP POP POP POP POP POP JUMP JUMPDEST PUSH1 0x4 PUSH0 SWAP1 SLOAD SWAP1 PUSH2 0x100 EXP SWAP1 DIV PUSH20 0xFFFFFFFFFFFFFFFFFFFFFFFFFFFFFFFFFFFFFFFF AND DUP2 JUMP JUMPDEST PUSH1 0x5 DUP2 SWAP1 DUP1 PUSH1 0x1 DUP2 SLOAD ADD DUP1 DUP3 SSTORE DUP1 SWAP2 POP POP PUSH1 0x1 SWAP1 SUB SWAP1 PUSH0 MSTORE PUSH1 0x20 PUSH0 KECCAK256 ADD PUSH0 SWAP1 SWAP2 SWAP1 SWAP2 SWAP1 SWAP2 POP SSTORE POP JUMP JUMPDEST PUSH1 0x40 MLOAD DUP1 PUSH1 0x60 ADD PUSH1 0x40 MSTORE DUP1 DUP5 DUP2 MSTORE PUSH1 0x20 ADD DUP4 DUP2 MSTORE PUSH1 0x20 ADD DUP3 DUP2 MSTORE POP PUSH1 0xC PUSH0 CALLER PUSH20 0xFFFFFFFFFFFFFFFFFFFFFFFFFFFFFFFFFFFFFFFF AND PUSH20 0xFFFFFFFFFFFFFFFFFFFFFFFFFFFFFFFFFFFFFFFF AND DUP2 MSTORE PUSH1 0x20 ADD SWAP1 DUP2 MSTORE PUSH1 0x20 ADD PUSH0 KECCAK256 PUSH0 DUP7 DUP2 MSTORE PUSH1 0x20 ADD SWAP1 DUP2 MSTORE PUSH1 0x20 ADD PUSH0 KECCAK256 PUSH0 DUP3 ADD MLOAD DUP2 PUSH0 ADD SSTORE PUSH1 0x20 DUP3 ADD MLOAD DUP2 PUSH1 0x1 ADD SWAP1 DUP2 PUSH2 0x3E7 SWAP2 SWAP1 PUSH2 0xCD1 JUMP JUMPDEST POP PUSH1 0x40 DUP3 ADD MLOAD DUP2 PUSH1 0x2 ADD SWAP1 DUP2 PUSH2 0x3FD SWAP2 SWAP1 PUSH2 0xCD1 JUMP JUMPDEST POP SWAP1 POP POP POP POP POP POP JUMP JUMPDEST PUSH1 0x8 DUP1 PUSH0 ADD SLOAD SWAP1 DUP1 PUSH1 0x1 ADD DUP1 SLOAD PUSH2 0x41D SWAP1 PUSH2 0xB04 JUMP JUMPDEST DUP1 PUSH1 0x1F ADD PUSH1 0x20 DUP1 SWAP2 DIV MUL PUSH1 0x20 ADD PUSH1 0x40 MLOAD SWAP1 DUP2 ADD PUSH1 0x40 MSTORE DUP1 SWAP3 SWAP2 SWAP1 DUP2 DUP2 MSTORE PUSH1 0x20 ADD DUP3 DUP1 SLOAD PUSH2 0x449 SWAP1 PUSH2 0xB04 JUMP JUMPDEST DUP1 ISZERO PUSH2 0x494 JUMPI DUP1 PUSH1 0x1F LT PUSH2 0x46B JUMPI PUSH2 0x100 DUP1 DUP4 SLOAD DIV MUL DUP4 MSTORE SWAP2 PUSH1 0x20 ADD SWAP2 PUSH2 0x494 JUMP JUMPDEST DUP3 ADD SWAP2 SWAP1 PUSH0 MSTORE PUSH1 0x20 PUSH0 KECCAK256 SWAP1 JUMPDEST DUP2 SLOAD DUP2 MSTORE SWAP1 PUSH1 0x1 ADD SWAP1 PUSH1 0x20 ADD DUP1 DUP4 GT PUSH2 0x477 JUMPI DUP3 SWAP1 SUB PUSH1 0x1F AND DUP3 ADD SWAP2 JUMPDEST POP POP POP POP POP SWAP1 DUP1 PUSH1 0x2 ADD DUP1 SLOAD PUSH2 0x4A9 SWAP1 PUSH2 0xB04 JUMP JUMPDEST DUP1 PUSH1 0x1F ADD PUSH1 0x20 DUP1 SWAP2 DIV MUL PUSH1 0x20 ADD PUSH1 0x40 MLOAD SWAP1 DUP2 ADD PUSH1 0x40 MSTORE DUP1 SWAP3 SWAP2 SWAP1 DUP2 DUP2 MSTORE PUSH1 0x20 ADD DUP3 DUP1 SLOAD PUSH2 0x4D5 SWAP1 PUSH2 0xB04 JUMP JUMPDEST DUP1 ISZERO PUSH2 0x520 JUMPI DUP1 PUSH1 0x1F LT PUSH2 0x4F7 JUMPI PUSH2 0x100 DUP1 DUP4 SLOAD DIV MUL DUP4 MSTORE SWAP2 PUSH1 0x20 ADD SWAP2 PUSH2 0x520 JUMP JUMPDEST DUP3 ADD SWAP2 SWAP1 PUSH0 MSTORE PUSH1 0x20 PUSH0 KECCAK256 SWAP1 JUMPDEST DUP2 SLOAD DUP2 MSTORE SWAP1 PUSH1 0x1 ADD SWAP1 PUSH1 0x20 ADD DUP1 DUP4 GT PUSH2 0x503 JUMPI DUP3 SWAP1 SUB PUSH1 0x1F AND DUP3 ADD SWAP2 JUMPDEST POP POP POP POP POP SWAP1 POP DUP4 JUMP JUMPDEST PUSH1 0x6 DUP2 SWAP1 DUP1 PUSH1 0x1 DUP2 SLOAD ADD DUP1 DUP3 SSTORE DUP1 SWAP2 POP POP PUSH1 0x1 SWAP1 SUB SWAP1 PUSH0 MSTORE PUSH1 0x20 PUSH0 KECCAK256 ADD PUSH0 SWAP1 SWAP2 SWAP1 SWAP2 SWAP1 SWAP2 POP SWAP1 DUP2 PUSH2 0x55B SWAP2 SWAP1 PUSH2 0xCD1 JUMP JUMPDEST POP POP JUMP JUMPDEST PUSH0 PUSH1 0x5 DUP1 SLOAD SWAP1 POP SWAP1 POP SWAP1 JUMP JUMPDEST PUSH1 0x3 SLOAD DUP2 JUMP JUMPDEST PUSH0 DUP1 SLOAD SWAP1 POP SWAP1 JUMP JUMPDEST PUSH1 0x6 DUP2 DUP2 SLOAD DUP2 LT PUSH2 0x588 JUMPI PUSH0 DUP1 REVERT JUMPDEST SWAP1 PUSH0 MSTORE PUSH1 0x20 PUSH0 KECCAK256 ADD PUSH0 SWAP2 POP SWAP1 POP DUP1 SLOAD PUSH2 0x5A0 SWAP1 PUSH2 0xB04 JUMP JUMPDEST DUP1 PUSH1 0x1F ADD PUSH1 0x20 DUP1 SWAP2 DIV MUL PUSH1 0x20 ADD PUSH1 0x40 MLOAD SWAP1 DUP2 ADD PUSH1 0x40 MSTORE DUP1 SWAP3 SWAP2 SWAP1 DUP2 DUP2 MSTORE PUSH1 0x20 ADD DUP3 DUP1 SLOAD PUSH2 0x5CC SWAP1 PUSH2 0xB04 JUMP JUMPDEST DUP1 ISZERO PUSH2 0x617 JUMPI DUP1 PUSH1 0x1F LT PUSH2 0x5EE JUMPI PUSH2 0x100 DUP1 DUP4 SLOAD DIV MUL DUP4 MSTORE SWAP2 PUSH1 0x20 ADD SWAP2 PUSH2 0x617 JUMP JUMPDEST DUP3 ADD SWAP2 SWAP1 PUSH0 MSTORE PUSH1 0x20 PUSH0 KECCAK256 SWAP1 JUMPDEST DUP2 SLOAD DUP2 MSTORE SWAP1 PUSH1 0x1 ADD SWAP1 PUSH1 0x20 ADD DUP1 DUP4 GT PUSH2 0x5FA JUMPI DUP3 SWAP1 SUB PUSH1 0x1F AND DUP3 ADD SWAP2 JUMPDEST POP POP POP POP POP DUP2 JUMP JUMPDEST PUSH1 0x7 DUP3 DUP2 SLOAD DUP2 LT PUSH2 0x62E JUMPI PUSH0 DUP1 REVERT JUMPDEST SWAP1 PUSH0 MSTORE PUSH1 0x20 PUSH0 KECCAK256 ADD DUP2 DUP2 SLOAD DUP2 LT PUSH2 0x643 JUMPI PUSH0 DUP1 REVERT JUMPDEST SWAP1 PUSH0 MSTORE PUSH1 0x20 PUSH0 KECCAK256 ADD PUSH0 SWAP2 POP SWAP2 POP POP SLOAD DUP2 JUMP JUMPDEST PUSH1 0x5 DUP2 DUP2 SLOAD DUP2 LT PUSH2 0x664 JUMPI PUSH0 DUP1 REVERT JUMPDEST SWAP1 PUSH0 MSTORE PUSH1 0x20 PUSH0 KECCAK256 ADD PUSH0 SWAP2 POP SWAP1 POP SLOAD DUP2 JUMP JUMPDEST PUSH0 DUP1 PUSH1 0xA SWAP1 POP DUP1 SWAP2 POP POP SWAP1 JUMP JUMPDEST PUSH1 0x1 PUSH0 SLOAD PUSH2 0x690 SWAP2 SWAP1 PUSH2 0xDCD JUMP JUMPDEST PUSH0 DUP2 SWAP1 SSTORE POP JUMP JUMPDEST PUSH0 PUSH1 0x40 MLOAD SWAP1 POP SWAP1 JUMP JUMPDEST PUSH0 DUP1 REVERT JUMPDEST PUSH0 DUP1 REVERT JUMPDEST PUSH0 DUP2 SWAP1 POP SWAP2 SWAP1 POP JUMP JUMPDEST PUSH2 0x6BA DUP2 PUSH2 0x6A8 JUMP JUMPDEST DUP2 EQ PUSH2 0x6C4 JUMPI PUSH0 DUP1 REVERT JUMPDEST POP JUMP JUMPDEST PUSH0 DUP2 CALLDATALOAD SWAP1 POP PUSH2 0x6D5 DUP2 PUSH2 0x6B1 JUMP JUMPDEST SWAP3 SWAP2 POP POP JUMP JUMPDEST PUSH0 DUP1 REVERT JUMPDEST PUSH0 DUP1 REVERT JUMPDEST PUSH0 PUSH1 0x1F NOT PUSH1 0x1F DUP4 ADD AND SWAP1 POP SWAP2 SWAP1 POP JUMP JUMPDEST PUSH32 0x4E487B7100000000000000000000000000000000000000000000000000000000 PUSH0 MSTORE PUSH1 0x41 PUSH1 0x4 MSTORE PUSH1 0x24 PUSH0 REVERT JUMPDEST PUSH2 0x729 DUP3 PUSH2 0x6E3 JUMP JUMPDEST DUP2 ADD DUP2 DUP2 LT PUSH8 0xFFFFFFFFFFFFFFFF DUP3 GT OR ISZERO PUSH2 0x748 JUMPI PUSH2 0x747 PUSH2 0x6F3 JUMP JUMPDEST JUMPDEST DUP1 PUSH1 0x40 MSTORE POP POP POP JUMP JUMPDEST PUSH0 PUSH2 0x75A PUSH2 0x697 JUMP JUMPDEST SWAP1 POP PUSH2 0x766 DUP3 DUP3 PUSH2 0x720 JUMP JUMPDEST SWAP2 SWAP1 POP JUMP JUMPDEST PUSH0 PUSH8 0xFFFFFFFFFFFFFFFF DUP3 GT ISZERO PUSH2 0x785 JUMPI PUSH2 0x784 PUSH2 0x6F3 JUMP JUMPDEST JUMPDEST PUSH2 0x78E DUP3 PUSH2 0x6E3 JUMP JUMPDEST SWAP1 POP PUSH1 0x20 DUP2 ADD SWAP1 POP SWAP2 SWAP1 POP JUMP JUMPDEST DUP3 DUP2 DUP4 CALLDATACOPY PUSH0 DUP4 DUP4 ADD MSTORE POP POP POP JUMP JUMPDEST PUSH0 PUSH2 0x7BB PUSH2 0x7B6 DUP5 PUSH2 0x76B JUMP JUMPDEST PUSH2 0x751 JUMP JUMPDEST SWAP1 POP DUP3 DUP2 MSTORE PUSH1 0x20 DUP2 ADD DUP5 DUP5 DUP5 ADD GT ISZERO PUSH2 0x7D7 JUMPI PUSH2 0x7D6 PUSH2 0x6DF JUMP JUMPDEST JUMPDEST PUSH2 0x7E2 DUP5 DUP3 DUP6 PUSH2 0x79B JUMP JUMPDEST POP SWAP4 SWAP3 POP POP POP JUMP JUMPDEST PUSH0 DUP3 PUSH1 0x1F DUP4 ADD SLT PUSH2 0x7FE JUMPI PUSH2 0x7FD PUSH2 0x6DB JUMP JUMPDEST JUMPDEST DUP2 CALLDATALOAD PUSH2 0x80E DUP5 DUP3 PUSH1 0x20 DUP7 ADD PUSH2 0x7A9 JUMP JUMPDEST SWAP2 POP POP SWAP3 SWAP2 POP POP JUMP JUMPDEST PUSH0 DUP1 PUSH0 DUP1 PUSH1 0x80 DUP6 DUP8 SUB SLT ISZERO PUSH2 0x82F JUMPI PUSH2 0x82E PUSH2 0x6A0 JUMP JUMPDEST JUMPDEST PUSH0 PUSH2 0x83C DUP8 DUP3 DUP9 ADD PUSH2 0x6C7 JUMP JUMPDEST SWAP5 POP POP PUSH1 0x20 PUSH2 0x84D DUP8 DUP3 DUP9 ADD PUSH2 0x6C7 JUMP JUMPDEST SWAP4 POP POP PUSH1 0x40 DUP6 ADD CALLDATALOAD PUSH8 0xFFFFFFFFFFFFFFFF DUP2 GT ISZERO PUSH2 0x86E JUMPI PUSH2 0x86D PUSH2 0x6A4 JUMP JUMPDEST JUMPDEST PUSH2 0x87A DUP8 DUP3 DUP9 ADD PUSH2 0x7EA JUMP JUMPDEST SWAP3 POP POP PUSH1 0x60 DUP6 ADD CALLDATALOAD PUSH8 0xFFFFFFFFFFFFFFFF DUP2 GT ISZERO PUSH2 0x89B JUMPI PUSH2 0x89A PUSH2 0x6A4 JUMP JUMPDEST JUMPDEST PUSH2 0x8A7 DUP8 DUP3 DUP9 ADD PUSH2 0x7EA JUMP JUMPDEST SWAP2 POP POP SWAP3 SWAP6 SWAP2 SWAP5 POP SWAP3 POP JUMP JUMPDEST PUSH0 PUSH20 0xFFFFFFFFFFFFFFFFFFFFFFFFFFFFFFFFFFFFFFFF DUP3 AND SWAP1 POP SWAP2 SWAP1 POP JUMP JUMPDEST PUSH0 PUSH2 0x8DC DUP3 PUSH2 0x8B3 JUMP JUMPDEST SWAP1 POP SWAP2 SWAP1 POP JUMP JUMPDEST PUSH2 0x8EC DUP2 PUSH2 0x8D2 JUMP JUMPDEST DUP3 MSTORE POP POP JUMP JUMPDEST PUSH0 PUSH1 0x20 DUP3 ADD SWAP1 POP PUSH2 0x905 PUSH0 DUP4 ADD DUP5 PUSH2 0x8E3 JUMP JUMPDEST SWAP3 SWAP2 POP POP JUMP JUMPDEST PUSH0 PUSH1 0x20 DUP3 DUP5 SUB SLT ISZERO PUSH2 0x920 JUMPI PUSH2 0x91F PUSH2 0x6A0 JUMP JUMPDEST JUMPDEST PUSH0 PUSH2 0x92D DUP5 DUP3 DUP6 ADD PUSH2 0x6C7 JUMP JUMPDEST SWAP2 POP POP SWAP3 SWAP2 POP POP JUMP JUMPDEST PUSH2 0x93F DUP2 PUSH2 0x6A8 JUMP JUMPDEST DUP3 MSTORE POP POP JUMP JUMPDEST PUSH0 DUP2 MLOAD SWAP1 POP SWAP2 SWAP1 POP JUMP JUMPDEST PUSH0 DUP3 DUP3 MSTORE PUSH1 0x20 DUP3 ADD SWAP1 POP SWAP3 SWAP2 POP POP JUMP JUMPDEST DUP3 DUP2 DUP4 MCOPY PUSH0 DUP4 DUP4 ADD MSTORE POP POP POP JUMP JUMPDEST PUSH0 PUSH2 0x977 DUP3 PUSH2 0x945 JUMP JUMPDEST PUSH2 0x981 DUP2 DUP6 PUSH2 0x94F JUMP JUMPDEST SWAP4 POP PUSH2 0x991 DUP2 DUP6 PUSH1 0x20 DUP7 ADD PUSH2 0x95F JUMP JUMPDEST PUSH2 0x99A DUP2 PUSH2 0x6E3 JUMP JUMPDEST DUP5 ADD SWAP2 POP POP SWAP3 SWAP2 POP POP JUMP JUMPDEST PUSH0 PUSH1 0x60 DUP3 ADD SWAP1 POP PUSH2 0x9B8 PUSH0 DUP4 ADD DUP7 PUSH2 0x936 JUMP JUMPDEST DUP2 DUP2 SUB PUSH1 0x20 DUP4 ADD MSTORE PUSH2 0x9CA DUP2 DUP6 PUSH2 0x96D JUMP JUMPDEST SWAP1 POP DUP2 DUP2 SUB PUSH1 0x40 DUP4 ADD MSTORE PUSH2 0x9DE DUP2 DUP5 PUSH2 0x96D JUMP JUMPDEST SWAP1 POP SWAP5 SWAP4 POP POP POP POP JUMP JUMPDEST PUSH0 PUSH1 0x20 DUP3 DUP5 SUB SLT ISZERO PUSH2 0x9FD JUMPI PUSH2 0x9FC PUSH2 0x6A0 JUMP JUMPDEST JUMPDEST PUSH0 DUP3 ADD CALLDATALOAD PUSH8 0xFFFFFFFFFFFFFFFF DUP2 GT ISZERO PUSH2 0xA1A JUMPI PUSH2 0xA19 PUSH2 0x6A4 JUMP JUMPDEST JUMPDEST PUSH2 0xA26 DUP5 DUP3 DUP6 ADD PUSH2 0x7EA JUMP JUMPDEST SWAP2 POP POP SWAP3 SWAP2 POP POP JUMP JUMPDEST PUSH0 PUSH1 0x20 DUP3 ADD SWAP1 POP PUSH2 0xA42 PUSH0 DUP4 ADD DUP5 PUSH2 0x936 JUMP JUMPDEST SWAP3 SWAP2 POP POP JUMP JUMPDEST PUSH0 DUP2 SWAP1 POP SWAP2 SWAP1 POP JUMP JUMPDEST PUSH2 0xA5A DUP2 PUSH2 0xA48 JUMP JUMPDEST DUP3 MSTORE POP POP JUMP JUMPDEST PUSH0 PUSH1 0x20 DUP3 ADD SWAP1 POP PUSH2 0xA73 PUSH0 DUP4 ADD DUP5 PUSH2 0xA51 JUMP JUMPDEST SWAP3 SWAP2 POP POP JUMP JUMPDEST PUSH0 PUSH1 0x20 DUP3 ADD SWAP1 POP DUP2 DUP2 SUB PUSH0 DUP4 ADD MSTORE PUSH2 0xA91 DUP2 DUP5 PUSH2 0x96D JUMP JUMPDEST SWAP1 POP SWAP3 SWAP2 POP POP JUMP JUMPDEST PUSH0 DUP1 PUSH1 0x40 DUP4 DUP6 SUB SLT ISZERO PUSH2 0xAAF JUMPI PUSH2 0xAAE PUSH2 0x6A0 JUMP JUMPDEST JUMPDEST PUSH0 PUSH2 0xABC DUP6 DUP3 DUP7 ADD PUSH2 0x6C7 JUMP JUMPDEST SWAP3 POP POP PUSH1 0x20 PUSH2 0xACD DUP6 DUP3 DUP7 ADD PUSH2 0x6C7 JUMP JUMPDEST SWAP2 POP POP SWAP3 POP SWAP3 SWAP1 POP JUMP JUMPDEST PUSH32 0x4E487B7100000000000000000000000000000000000000000000000000000000 PUSH0 MSTORE PUSH1 0x22 PUSH1 0x4 MSTORE PUSH1 0x24 PUSH0 REVERT JUMPDEST PUSH0 PUSH1 0x2 DUP3 DIV SWAP1 POP PUSH1 0x1 DUP3 AND DUP1 PUSH2 0xB1B JUMPI PUSH1 0x7F DUP3 AND SWAP2 POP JUMPDEST PUSH1 0x20 DUP3 LT DUP2 SUB PUSH2 0xB2E JUMPI PUSH2 0xB2D PUSH2 0xAD7 JUMP JUMPDEST JUMPDEST POP SWAP2 SWAP1 POP JUMP JUMPDEST PUSH0 DUP2 SWAP1 POP DUP2 PUSH0 MSTORE PUSH1 0x20 PUSH0 KECCAK256 SWAP1 POP SWAP2 SWAP1 POP JUMP JUMPDEST PUSH0 PUSH1 0x20 PUSH1 0x1F DUP4 ADD DIV SWAP1 POP SWAP2 SWAP1 POP JUMP JUMPDEST PUSH0 DUP3 DUP3 SHL SWAP1 POP SWAP3 SWAP2 POP POP JUMP JUMPDEST PUSH0 PUSH1 0x8 DUP4 MUL PUSH2 0xB90 PUSH32 0xFFFFFFFFFFFFFFFFFFFFFFFFFFFFFFFFFFFFFFFFFFFFFFFFFFFFFFFFFFFFFFFF DUP3 PUSH2 0xB55 JUMP JUMPDEST PUSH2 0xB9A DUP7 DUP4 PUSH2 0xB55 JUMP JUMPDEST SWAP6 POP DUP1 NOT DUP5 AND SWAP4 POP DUP1 DUP7 AND DUP5 OR SWAP3 POP POP POP SWAP4 SWAP3 POP POP POP JUMP JUMPDEST PUSH0 DUP2 SWAP1 POP SWAP2 SWAP1 POP JUMP JUMPDEST PUSH0 PUSH2 0xBD5 PUSH2 0xBD0 PUSH2 0xBCB DUP5 PUSH2 0x6A8 JUMP JUMPDEST PUSH2 0xBB2 JUMP JUMPDEST PUSH2 0x6A8 JUMP JUMPDEST SWAP1 POP SWAP2 SWAP1 POP JUMP JUMPDEST PUSH0 DUP2 SWAP1 POP SWAP2 SWAP1 POP JUMP JUMPDEST PUSH2 0xBEE DUP4 PUSH2 0xBBB JUMP JUMPDEST PUSH2 0xC02 PUSH2 0xBFA DUP3 PUSH2 0xBDC JUMP JUMPDEST DUP5 DUP5 SLOAD PUSH2 0xB61 JUMP JUMPDEST DUP3 SSTORE POP POP POP POP JUMP JUMPDEST PUSH0 SWAP1 JUMP JUMPDEST PUSH2 0xC16 PUSH2 0xC0A JUMP JUMPDEST PUSH2 0xC21 DUP2 DUP5 DUP5 PUSH2 0xBE5 JUMP JUMPDEST POP POP POP JUMP JUMPDEST JUMPDEST DUP2 DUP2 LT ISZERO PUSH2 0xC44 JUMPI PUSH2 0xC39 PUSH0 DUP3 PUSH2 0xC0E JUMP JUMPDEST PUSH1 0x1 DUP2 ADD SWAP1 POP PUSH2 0xC27 JUMP JUMPDEST POP POP JUMP JUMPDEST PUSH1 0x1F DUP3 GT ISZERO PUSH2 0xC89 JUMPI PUSH2 0xC5A DUP2 PUSH2 0xB34 JUMP JUMPDEST PUSH2 0xC63 DUP5 PUSH2 0xB46 JUMP JUMPDEST DUP2 ADD PUSH1 0x20 DUP6 LT ISZERO PUSH2 0xC72 JUMPI DUP2 SWAP1 POP JUMPDEST PUSH2 0xC86 PUSH2 0xC7E DUP6 PUSH2 0xB46 JUMP JUMPDEST DUP4 ADD DUP3 PUSH2 0xC26 JUMP JUMPDEST POP POP JUMPDEST POP POP POP JUMP JUMPDEST PUSH0 DUP3 DUP3 SHR SWAP1 POP SWAP3 SWAP2 POP POP JUMP JUMPDEST PUSH0 PUSH2 0xCA9 PUSH0 NOT DUP5 PUSH1 0x8 MUL PUSH2 0xC8E JUMP JUMPDEST NOT DUP1 DUP4 AND SWAP2 POP POP SWAP3 SWAP2 POP POP JUMP JUMPDEST PUSH0 PUSH2 0xCC1 DUP4 DUP4 PUSH2 0xC9A JUMP JUMPDEST SWAP2 POP DUP3 PUSH1 0x2 MUL DUP3 OR SWAP1 POP SWAP3 SWAP2 POP POP JUMP JUMPDEST PUSH2 0xCDA DUP3 PUSH2 0x945 JUMP JUMPDEST PUSH8 0xFFFFFFFFFFFFFFFF DUP2 GT ISZERO PUSH2 0xCF3 JUMPI PUSH2 0xCF2 PUSH2 0x6F3 JUMP JUMPDEST JUMPDEST PUSH2 0xCFD DUP3 SLOAD PUSH2 0xB04 JUMP JUMPDEST PUSH2 0xD08 DUP3 DUP3 DUP6 PUSH2 0xC48 JUMP JUMPDEST PUSH0 PUSH1 0x20 SWAP1 POP PUSH1 0x1F DUP4 GT PUSH1 0x1 DUP2 EQ PUSH2 0xD39 JUMPI PUSH0 DUP5 ISZERO PUSH2 0xD27 JUMPI DUP3 DUP8 ADD MLOAD SWAP1 POP JUMPDEST PUSH2 0xD31 DUP6 DUP3 PUSH2 0xCB6 JUMP JUMPDEST DUP7 SSTORE POP PUSH2 0xD98 JUMP JUMPDEST PUSH1 0x1F NOT DUP5 AND PUSH2 0xD47 DUP7 PUSH2 0xB34 JUMP JUMPDEST PUSH0 JUMPDEST DUP3 DUP2 LT ISZERO PUSH2 0xD6E JUMPI DUP5 DUP10 ADD MLOAD DUP3 SSTORE PUSH1 0x1 DUP3 ADD SWAP2 POP PUSH1 0x20 DUP6 ADD SWAP5 POP PUSH1 0x20 DUP2 ADD SWAP1 POP PUSH2 0xD49 JUMP JUMPDEST DUP7 DUP4 LT ISZERO PUSH2 0xD8B JUMPI DUP5 DUP10 ADD MLOAD PUSH2 0xD87 PUSH1 0x1F DUP10 AND DUP3 PUSH2 0xC9A JUMP JUMPDEST DUP4 SSTORE POP JUMPDEST PUSH1 0x1 PUSH1 0x2 DUP9 MUL ADD DUP9 SSTORE POP POP POP JUMPDEST POP POP POP POP POP POP JUMP JUMPDEST PUSH32 0x4E487B7100000000000000000000000000000000000000000000000000000000 PUSH0 MSTORE PUSH1 0x11 PUSH1 0x4 MSTORE PUSH1 0x24 PUSH0 REVERT JUMPDEST PUSH0 PUSH2 0xDD7 DUP3 PUSH2 0x6A8 JUMP JUMPDEST SWAP2 POP PUSH2 0xDE2 DUP4 PUSH2 0x6A8 JUMP JUMPDEST SWAP3 POP DUP3 DUP3 ADD SWAP1 POP DUP1 DUP3 GT ISZERO PUSH2 0xDFA JUMPI PUSH2 0xDF9 PUSH2 0xDA0 JUMP JUMPDEST JUMPDEST SWAP3 SWAP2 POP POP JUMP INVALID LOG2 PUSH5 0x6970667358 0x22 SLT KECCAK256 PUSH30 0x3361FAE206B6C39DDD9E61E1FDE46CDF8650D6E926E771DADB4F93D9714B LOG3 PUSH5 0x736F6C6343 STOP ADDMOD BYTE STOP CALLER "
		},
		"gasEstimates": {
			"creation": {
				"codeDepositCost": "727600",
				"executionCost": "infinite",
				"totalCost": "infinite"
			},
			"external": {
				"NumbersLength()": "2529",
				"addColleges(uint256,uint256,string,string)": "infinite",
				"addFruits(string)": "infinite",
				"addNumbers(uint256)": "46889",
				"addStudents(uint256,uint256,string,string)": "infinite",
				"fruits(uint256)": "infinite",
				"get10()": "411",
				"getCount()": "2477",
				"incrementCount()": "infinite",
				"myAddress()": "2554",
				"mybytes32()": "2448",
				"numbers(uint256)": "infinite",
				"s1()": "infinite",
				"twoDArray(uint256,uint256)": "infinite"
			}
		},
		"methodIdentifiers": {
			"NumbersLength()": "916505aa",
			"addColleges(uint256,uint256,string,string)": "506551ad",
			"addFruits(string)": "76a0625a",
			"addNumbers(uint256)": "2be55998",
			"addStudents(uint256,uint256,string,string)": "05304e45",
			"fruits(uint256)": "c4172162",
			"get10()": "d54566af",
			"getCount()": "a87d942c",
			"incrementCount()": "e5071b8e",
			"myAddress()": "26b85ee1",
			"mybytes32()": "933fb55b",
			"numbers(uint256)": "d39fa233",
			"s1()": "6cc014de",
			"twoDArray(uint256,uint256)": "cfd83319"
		}
	},
	"abi": [
		{
			"inputs": [],
			"stateMutability": "nonpayable",
			"type": "constructor"
		},
		{
			"inputs": [],
			"name": "NumbersLength",
			"outputs": [
				{
					"internalType": "uint256",
					"name": "",
					"type": "uint256"
				}
			],
			"stateMutability": "view",
			"type": "function"
		},
		{
			"inputs": [
				{
					"internalType": "uint256",
					"name": "_id",
					"type": "uint256"
				},
				{
					"internalType": "uint256",
					"name": "_usn",
					"type": "uint256"
				},
				{
					"internalType": "string",
					"name": "_name",
					"type": "string"
				},
				{
					"internalType": "string",
					"name": "_college",
					"type": "string"
				}
			],
			"name": "addColleges",
			"outputs": [],
			"stateMutability": "nonpayable",
			"type": "function"
		},
		{
			"inputs": [
				{
					"internalType": "string",
					"name": "fr",
					"type": "string"
				}
			],
			"name": "addFruits",
			"outputs": [],
			"stateMutability": "nonpayable",
			"type": "function"
		},
		{
			"inputs": [
				{
					"internalType": "uint256",
					"name": "_val",
					"type": "uint256"
				}
			],
			"name": "addNumbers",
			"outputs": [],
			"stateMutability": "nonpayable",
			"type": "function"
		},
		{
			"inputs": [
				{
					"internalType": "uint256",
					"name": "_id",
					"type": "uint256"
				},
				{
					"internalType": "uint256",
					"name": "_usn",
					"type": "uint256"
				},
				{
					"internalType": "string",
					"name": "_name",
					"type": "string"
				},
				{
					"internalType": "string",
					"name": "_college",
					"type": "string"
				}
			],
			"name": "addStudents",
			"outputs": [],
			"stateMutability": "nonpayable",
			"type": "function"
		},
		{
			"inputs": [
				{
					"internalType": "uint256",
					"name": "",
					"type": "uint256"
				}
			],
			"name": "fruits",
			"outputs": [
				{
					"internalType": "string",
					"name": "",
					"type": "string"
				}
			],
			"stateMutability": "view",
			"type": "function"
		},
		{
			"inputs": [],
			"name": "get10",
			"outputs": [
				{
					"internalType": "uint256",
					"name": "",
					"type": "uint256"
				}
			],
			"stateMutability": "pure",
			"type": "function"
		},
		{
			"inputs": [],
			"name": "getCount",
			"outputs": [
				{
					"internalType": "uint256",
					"name": "",
					"type": "uint256"
				}
			],
			"stateMutability": "view",
			"type": "function"
		},
		{
			"inputs": [],
			"name": "incrementCount",
			"outputs": [],
			"stateMutability": "nonpayable",
			"type": "function"
		},
		{
			"inputs": [],
			"name": "myAddress",
			"outputs": [
				{
					"internalType": "address",
					"name": "",
					"type": "address"
				}
			],
			"stateMutability": "view",
			"type": "function"
		},
		{
			"inputs": [],
			"name": "mybytes32",
			"outputs": [
				{
					"internalType": "bytes32",
					"name": "",
					"type": "bytes32"
				}
			],
			"stateMutability": "view",
			"type": "function"
		},
		{
			"inputs": [
				{
					"internalType": "uint256",
					"name": "",
					"type": "uint256"
				}
			],
			"name": "numbers",
			"outputs": [
				{
					"internalType": "uint256",
					"name": "",
					"type": "uint256"
				}
			],
			"stateMutability": "view",
			"type": "function"
		},
		{
			"inputs": [],
			"name": "s1",
			"outputs": [
				{
					"internalType": "uint256",
					"name": "usn",
					"type": "uint256"
				},
				{
					"internalType": "string",
					"name": "name",
					"type": "string"
				},
				{
					"internalType": "string",
					"name": "college",
					"type": "string"
				}
			],
			"stateMutability": "view",
			"type": "function"
		},
		{
			"inputs": [
				{
					"internalType": "uint256",
					"name": "",
					"type": "uint256"
				},
				{
					"internalType": "uint256",
					"name": "",
					"type": "uint256"
				}
			],
			"name": "twoDArray",
			"outputs": [
				{
					"internalType": "uint256",
					"name": "",
					"type": "uint256"
				}
			],
			"stateMutability": "view",
			"type": "function"
		}
	]
}